:020000040000FA
:100000000C9462000C948A000C948A000C948A0070
:100010000C948A000C948A000C948A000C948A0038
:100020000C948A000C948A000C948A000C948A0028
:100030000C948A000C948A000C948A000C948A0018
:100040000C94760C0C948A000C948A000C948A0010
:100050000C948A000C948A000C948A000C948A00F8
:100060000C94C00C0C948A000000000024002700AF
:100070002A0000000000250028002B0000000000DE
:1000800023002600290004040404040404040202DA
:100090000202020203030303030301020408102007
:1000A0004080010204081020010204081020000012
:1000B0000008000201000003040700000000000027
:1000C0000000DF0D11241FBECFEFD8E0DEBFCDBF93
:1000D00022E0AAEBB1E001C01D92AD3AB207E1F710
:1000E00011E0A0E0B1E0E0E4F1E202C005900D9281
:1000F000AA3BB107D9F710E0C2E6D0E004C02197CF
:10010000FE010E949810C136D107C9F70E94030E64
:100110000C949E100C94000091E0909392028093B6
:1001200091021092900210928F02089508950895FE
:10013000AF92BF92CF92DF92EF92FF920F931F93F5
:10014000CF93DF936C017B018B01040F151FEB0133
:100150005E01AE18BF08C017D10759F06991D601EA
:10016000ED91FC910190F081E02DC6010995892B5C
:1001700079F7C501DF91CF911F910F91FF90EF901B
:10018000DF90CF90BF90AF900895833081F028F436
:10019000813099F08230A9F008958730A9F0883035
:1001A000C9F08430B1F4809180008F7D03C08091CC
:1001B00080008F7780938000089584B58F7784BD09
:1001C000089584B58F7DFBCF8091B0008F778093A9
:1001D000B00008958091B0008F7DF9CFCF93DF9369
:1001E000282F30E0F901E255FF4F8491F901E656DE
:1001F000FF4FD491F901EA57FF4FC491CC23A1F0EE
:1002000081110E94C500EC2FF0E0EE0FFF1FE458B3
:10021000FF4FA591B491EC91ED2381E090E009F4BA
:1002200080E0DF91CF91089580E090E0FACF1F93B6
:10023000CF93DF93282F30E0F901E255FF4F8491EF
:10024000F901E656FF4FD491F901EA57FF4FC491E7
:10025000CC23A9F0162F81110E94C500EC2FF0E0ED
:10026000EE0FFF1FEE58FF4FA591B4918FB7F89492
:10027000EC91111108C0D095DE23DC938FBFDF9184
:10028000CF911F910895DE2BF8CFCF93DF9390E0AD
:10029000FC01E656FF4F24918A579F4FFC01849141
:1002A0008823D1F090E0880F991FFC01E859FF4F97
:1002B000A591B491FC01EE58FF4FC591D491611105
:1002C0000EC09FB7F8948C91E22FE0958E238C930B
:1002D0002881E223E8839FBFDF91CF9108958FB7F4
:1002E000F894EC91E22BEC938FBFF6CF3FB7F894E4
:1002F00080911F0290912002A0912102B0912202D0
:1003000026B5A89B05C02F3F19F00196A11DB11D70
:100310003FBFBA2FA92F982F8827BC01CD01620FAC
:10032000711D811D911D42E0660F771F881F991F67
:100330004A95D1F708958F929F92AF92BF92CF9234
:10034000DF92EF92FF924B015C010E9476016B01FC
:100350007C010E9476016C197D098E099F09683E17
:10036000734081059105A8F321E0821A9108A10844
:10037000B10888EEC80E83E0D81EE11CF11C811480
:100380009104A104B10429F7FF90EF90DF90CF9082
:10039000BF90AF909F908F9008952091FB01260F02
:1003A0003327331F21323105ECF420916702FC0121
:1003B00090E080E0243069F082E00895A091FB0194
:1003C0002191AC0145525E4FA40FB52FB11D2C9366
:1003D0000196861798F38091FB01680F6093FB01EB
:1003E00080E0089581E008951092670281E0809393
:1003F00066021092610261E082E10E94170161E0F1
:1004000083E10E941701E9EBF0E080818E7F808319
:1004100080818D7F808388E48093B80085E4809319
:10042000BC000895CF93DF9391E09093DA01882385
:10043000B9F0C091B800D091BA008091BC008A7B1D
:100440008093BC0060E082E10E94170160E083E1DC
:100450000E9417010E94F401D093BA00C093B80023
:10046000DF91CF9108950895E0916E0280916D0221
:10047000E81730F4F0E0E159FD4F808190E00895F5
:100480008FEF9FEF089590916E0280916D022FEF94
:100490003FEF981748F4E92FF0E0E159FD4F208134
:1004A00030E09F5F90936E02C901089580916D02C4
:1004B00090916E02891B990B0895CF92DF92EF9273
:1004C000FF920F931F93CF93DF937C01CB018A019F
:1004D00020919202222389F0EB016B01C40ED51EFC
:1004E000CC15DD0569F06991D701ED91FC91019082
:1004F000F081E02DC7010995F3CF642F0E94CD0153
:10050000C801DF91CF911F910F91FF90EF90DF9085
:10051000CF900895CF93DF931F92CDB7DEB7698355
:10052000209192022223F9F020918F02203258F07C
:1005300021E030E0FC013383228390E080E00F90E3
:10054000DF91CF91089580919002E82FF0E0E6547A
:10055000FE4F998190838F5F8093900280938F02EA
:1005600081E090E0ECCF61E0CE0101960E94CD01E8
:10057000F7CFCF92DF92EF92FF920F931F93CF931B
:10058000DF93D0918F0281E0D13208F09CC0C091FE
:1005900091020E9476016B017C01809167028111BA
:1005A0006CC082E08093670281E0809366028FEFE7
:1005B0008093650210926402D0936302AAEBB1E0CB
:1005C000E1E4F2E080E0D8138DC0109262028091E5
:1005D0006202CC0FC82BC09362028091610281300D
:1005E00009F084C0109261020E9476016B017C01C7
:1005F000809162028093BB008091690290916A02AF
:10060000A0916B02B0916C02892B8A2B8B2BA1F0ED
:100610000E9476010091690210916A0220916B029A
:1006200030916C026C197D098E099F090617170716
:100630002807390708F442C08091BC0083FDD8CF59
:1006400085EC8093BC000E9476016B017C01809157
:100650006702823009F44CC0809165028F3F09F433
:1006600069C080916502803209F466C0809165029C
:10067000803309F463C084E026C0809169029091C0
:100680006A02A0916B02B0916C02892B8A2B8B2B92
:1006900009F483CF0E9476010091690210916A02E9
:1006A00020916B0230916C026C197D098E099F09B3
:1006B000061717072807390708F06FCF80916802DF
:1006C0000E94120285E01092900210928F02109206
:1006D0009202DF91CF911F910F91FF90EF90DF90E9
:1006E000CF9008959D9191938F5F6DCF85EEA9CFA7
:1006F0008091690290916A02A0916B02B0916C02A4
:10070000892B8A2B8B2B09F4A2CF0E9476010091B2
:10071000690210916A0220916B0230916C026C198F
:100720007D098E099F09061717072807390708F062
:100730008ECFC4CF80E0C7CF82E0C5CF83E0C3CFE8
:10074000DC01ED91FC910190F081E02D0994CF93B3
:10075000C82F88E60E948C0061E070E08091AB02B7
:100760009091AC020E94A003A091AB02B091AC02A8
:100770008C2F6AE00E948C108295807F682F690F11
:10078000ED91FC9111970190F081E02DCD0109953B
:100790008091AB029091AC02CF910C94B902CF93AF
:1007A000C82F88E60E948C0064E070E08091AB0264
:1007B0009091AC020E94A003A091AB02B091AC0258
:1007C0008C2F6AE00E948C108295807F682F690FC1
:1007D000ED91FC9111970190F081E02DCD010995EB
:1007E0008091AB029091AC02CF910C94B902CF935F
:1007F000C82F88E60E948C0065E070E08091AB0213
:100800009091AC020E94A003A091AB02B091AC0207
:100810008C2F6AE00E948C108295807F682F690F70
:10082000ED91FC9111970190F081E02DCD0109959A
:100830008091AB029091AC02CF910C94B902CF930E
:10084000C82F88E60E948C0066E070E08091AB02C1
:100850009091AC020E94A003A091AB02B091AC02B7
:100860008C2F6AE00E948C108295807F682F690F20
:10087000ED91FC9111970190F081E02DCD0109954A
:100880008091AB029091AC02CF910C94B9020F937E
:100890001F93CF938C01C62FFC0184810E948C0092
:1008A000F8016385C62B6C2F70E083E992E00E940B
:1008B000A00383E992E0CF911F910F910C94B902AC
:1008C000089590E080E00895CF92DF92EF92FF923A
:1008D0000F931F930E9476016B017C018091670248
:1008E000811163C081E080936702809366029FEF6D
:1008F00090936502109264021092630280936202E8
:1009000080916202806D80936202809161028130E9
:1009100009F07CC0109261020E9476016B017C019B
:10092000809162028093BB008091690290916A027B
:10093000A0916B02B0916C02892B8A2B8B2BA1F0BA
:100940000E9476010091690210916A0220916B0267
:1009500030916C026C197D098E099F0906171707E3
:100960002807390708F442C08091BC0083FDD8CF26
:1009700085EC8093BC000E9476016B017C01809124
:100980006702813009F444C080916402811162C021
:1009900080916402A1E4B2E0EFE6F2E090E0981703
:1009A00051F12D9121939F5FFACF8091690290912F
:1009B0006A02A0916B02B0916C02892B8A2B8B2B5F
:1009C00009F48CCF0E9476010091690210916A02AD
:1009D00020916B0230916C026C197D098E099F0980
:1009E000061717072807390708F078CF80916802A3
:1009F0000E94120280E010926E0280936D021F919D
:100A00000F91FF90EF90DF90CF90089585EEB1CFDA
:100A10008091690290916A02A0916B02B0916C0280
:100A2000892B8A2B8B2B09F4AACF0E947601009187
:100A3000690210916A0220916B0230916C026C196C
:100A40007D098E099F09061717072807390708F03F
:100A500096CFCCCF81E09ECFCF93DF93D82F88E67F
:100A60000E948C0062E070E08091AB029091AC0239
:100A70000E94A0038091AB029091AC020E94B90247
:100A80008091AB029091AC020E9464048091AB0211
:100A90009091AC02DC01ED91FC910284F385E02D94
:100AA000099586FF38C0C1E0DC3008F4C0E0DC30D6
:100AB00008F0DC50D11101C0DCE08D2F6AE00E940B
:100AC0008C108295807F980FD0E085E0CC0FDD1FE1
:100AD0008A95E1F7C064C92B88E60E948C0062E029
:100AE00070E08091AB029091AC020E94A0038091D3
:100AF000AB029091AC02DC01ED91FC910190F08190
:100B0000E02D6C2F09958091AB029091AC02DF91A2
:100B1000CF910C94B9028D2F6AE00E948C10C82FDF
:100B2000C295C07FC90FCF7BD7CF88E60E948C00CB
:100B300070E060E08091AB029091AC020E94A00353
:100B40008091AB029091AC020E94B9028091AB02FD
:100B50009091AC020E9464048091AB029091AC022F
:100B6000DC01ED91FC910284F385E02D0995982F2D
:100B700092959F708F70BAE09B9F800D112408950D
:100B800088E60E948C0061E070E08091AB02909159
:100B9000AC020E94A0038091AB029091AC020E9433
:100BA000B9028091AB029091AC020E9464048091E2
:100BB000AB029091AC02DC01ED91FC910284F385D3
:100BC000E02D0995982F92959F708F70BAE09B9FAA
:100BD000800D1124089588E60E948C0062E070E088
:100BE0008091AB029091AC020E94A0038091AB0275
:100BF0009091AC020E94B9028091AB029091AC023C
:100C00000E9464048091AB029091AC02DC01ED91F2
:100C1000FC910284F385E02D099521E0AC0140743C
:100C2000552786FF20E020934002282F22952F7021
:100C3000382F3F70452B61F085FB992790F99093F1
:100C40003F022170832FBAE02B9F800D112408955D
:100C50002370832F9AE0299F800D1124089588E640
:100C60000E948C0064E070E08091AB029091AC0235
:100C70000E94A0038091AB029091AC020E94B90245
:100C80008091AB029091AC020E9464048091AB020F
:100C90009091AC02DC01ED91FC910284F385E02D92
:100CA0000995982F92959F708F70BAE09B9F800D49
:100CB0001124089588E60E948C0065E070E0809120
:100CC000AB029091AC020E94A0038091AB02909184
:100CD000AC020E94B9028091AB029091AC020E94DA
:100CE00064048091AB029091AC02DC01ED91FC9127
:100CF0000284F385E02D0995982F991F9927991F54
:100D000090933E02982F929597708F70BAE09B9FB8
:100D1000800D1124089588E60E948C0066E070E042
:100D20008091AB029091AC020E94A0038091AB0233
:100D30009091AC020E94B9028091AB029091AC02FA
:100D40000E9464048091AB029091AC02DC01ED91B1
:100D5000FC910284F385E02D0995982F92959F7060
:100D60008F70BAE09B9F800D112408950F931F93FD
:100D7000CF938C01C62F0E9447046C2F6460C8017A
:100D80000E9447046C2F6B7FC8010E94470483ECCC
:100D900090E00197F1F7CF911F910F9108950F9374
:100DA0001F93CF93DF938C01D62FC42F607F642BCA
:100DB0000E94B60680E1D89FB00111246C2BC801B7
:100DC000DF91CF911F910F910C94B60640E061E046
:100DD0008FE992E00E94CF068BE39FE10197F1F744
:100DE0000895CF93DF93CDB7DEB728970FB6F89469
:100DF000DEBF0FBECDBF98E0E0E0F1E0DE0111966E
:100E000001900D929A95E1F79091A702981708F436
:100E10008FEF90E0880F991F21E030E02C0F3D1FED
:100E2000820F931FFC016081606840E08FE992E0CF
:100E300028960FB6F894DEBF0FBECDBFDF91CF91DD
:100E40000C94CF0641E00E94CF0681E090E0089527
:100E50008F929F92AF92BF920F931F93CF93DF9386
:100E6000CDB7DEB7A1970FB6F894DEBF0FBECDBFEA
:100E700019A2423008F44AE08E010F5D1F4F842E04
:100E8000912CB12CA12CA50194010E946A10E62F8F
:100E9000B901CA01EA3044F5E05DD801EE938D0155
:100EA000232B242B252B79F790E080E0109769F015
:100EB000FD0101900020E9F73197AF014A1B5B0B60
:100EC000BD018FE992E00E949800A1960FB6F894B8
:100ED000DEBF0FBECDBFDF91CF911F910F91BF90AD
:100EE000AF909F908F900895E95CD7CF682F70E006
:100EF00090E080E04AE00C942807CF92DF92EF92D6
:100F0000FF926C01990FEE08FF08F7FE16C041E052
:100F10006DE28FE992E00E94CF0666277727CB012A
:100F20006C197D098E099F094AE00E9428070196E5
:100F3000FF90EF90DF90CF9008954AE0C701B6018F
:100F4000FF90EF90DF90CF900C942807FC01019068
:100F50000020E9F73197AF01481B590BBC018FE91D
:100F600092E00C9498002F923F924F925F926F9272
:100F70007F928F929F92AF92BF92CF92DF92EF9229
:100F8000FF920F931F93CF93DF930E948B06E82E5F
:100F9000F12C0E94E60680E00E94F10686E291E0D4
:100FA0000E94A60781E00E94F106C7010E947D070A
:100FB00084E991E00E94A60783E00E94EE00019779
:100FC00009F0DDC164E670E080E090E00E949B01E2
:100FD00083E00E94EE00019719F48FEFE81AF80AF7
:100FE00086E00E94EE00019709F0EBC164E670E034
:100FF00080E090E00E949B0186E00E94EE00019755
:1010000009F0DFC180913D02882309F4D6C1F09236
:101010003A02E09239020E945A06082F10E00E941C
:10102000E60680E00E94F10685E391E00E94A607B3
:10103000CCE0D0E081E00E94F106C8010E947D076B
:1010400084E991E00E94A60783E00E94EE000197E8
:1010500009F0E6C164E670E080E090E00E949B0148
:1010600083E00E94EE00019731F4C8010196BE01B1
:101070000E9456108C0186E00E94EE00019709F054
:10108000ECC164E670E080E090E00E949B0186E0A5
:101090000E94EE00019709F0E0C180913D02882393
:1010A00009F4D7C110933802009337020E942F062B
:1010B000C82FD0E00E94E60680E00E94F10685E499
:1010C00091E00E94A607C7016AE070E00E945610F6
:1010D0005C016801E894C1F84801B7E08B1A9108F7
:1010E00083E0E822FF248EE1282E312C9CE1492E5A
:1010F000512C2DE1622E712C81E00E94F106CE016F
:101100000E947D0784E991E00E94A60783E00E9487
:10111000EE00019709F0ECC164E670E080E090E039
:101120000E949B0183E00E94EE000197C9F4A1E0B8
:10113000CA16D10471F00530110559F0B2E08B16D2
:10114000910438F00A30110521F00C30110509F036
:10115000B3C1CE0101966FE170E00E945610EC0120
:1011600086E00E94EE00019709F014C264E670E088
:1011700080E090E00E949B0186E00E94EE000197D3
:1011800009F008C280913D02882309F4FFC1D09381
:101190003602C09335020E94EB05C82FD0E00E94B2
:1011A000E60680E00E94F10683E591E00E94A60732
:1011B00008E110E081E00E94F106CE010E947D0767
:1011C00084E991E00E94A60783E00E94EE00019767
:1011D00009F00BC264E670E080E090E00E949B01A1
:1011E00083E00E94EE00019731F4CE010196B80130
:1011F0000E945610EC0186E00E94EE00019709F073
:1012000010C264E670E080E090E00E949B0186E0FE
:101210000E94EE00019709F004C280913D028823EC
:1012200009F4FBC1D0933402C09333020E94C0057D
:10123000C82FD0E00E94E60680E00E94F10682E618
:1012400091E00E94A6070CE310E081E00E94F10605
:10125000CE010E947D0784E991E00E94A60783E009
:101260000E94EE00019709F007C264E670E080E09A
:1012700090E00E949B0183E00E94EE00019731F410
:10128000CE010196B8010E945610EC0186E00E9442
:10129000EE00019709F00CC264E670E080E090E097
:1012A0000E949B0186E00E94EE00019709F000C2B7
:1012B00080913D02882309F4F7C1D0933202C09394
:1012C00031020E949505C82FD0E00E94E60680E01A
:1012D0000E94F10683E791E00E94A6070CE310E06C
:1012E00081E00E94F106CE010E947D0784E991E031
:1012F0000E94A60783E00E94EE00019709F003C256
:1013000064E670E080E090E00E949B0183E00E9430
:10131000EE00019731F4CE010196B8010E945610FB
:10132000EC0186E00E94EE00019709F07CC264E6C1
:1013300070E080E090E00E949B0186E00E94EE0059
:10134000019709F070C280913D02882309F4F3C12E
:10135000D0933002C0932F02DF91CF911F910F9154
:10136000FF90EF90DF90CF90BF90AF909F908F90C5
:101370007F906F905F904F903F902F90089585E001
:101380000E94EE00019709F02BCE64E670E080E049
:1013900090E00E949B0185E00E94EE00019709F019
:1013A0001FCEE114F10429F40E948B06E82EF12CE3
:1013B00017CEA1E0EA1AF10813CE8E2D0E941F0469
:1013C0002ACE84E00E94EE000197A1F464E670E06A
:1013D00080E090E00E949B0184E00E94EE00019773
:1013E00081F480913D02811113C00E948B06E82E8A
:1013F000F12C11CE82E00E94EE00019709F0D2CDCF
:10140000E5CF82E00E94EE00019709F0CBCDE9CF55
:101410000E948B0690E090933A0280933902FBCDB4
:1014200085E00E94EE00019709F025CE64E670E0A9
:1014300080E090E00E949B0185E00E94EE00019711
:1014400009F019CE0150110909F015CE0CE010E099
:1014500012CE802F0E94F70329CE84E00E94EE0076
:101460000197A1F464E670E080E090E00E949B01A7
:1014700084E00E94EE00019781F480913D02811189
:1014800013C00E945A06082F10E010CE82E00E947E
:10149000EE00019709F0CECDE5CF82E00E94EE008C
:1014A000019709F0C7CDE9CF0E945A0690E09093CA
:1014B000380280933702FACD84E0C816D10421F0B7
:1014C000A9E0CA16D10421F4CE010196B10145CE9E
:1014D0000230110509F044CECE010196E114F10469
:1014E00029F4B301A114B10409F037CEB20135CE0D
:1014F00085E00E94EE00019709F032CE64E670E0CC
:1015000080E090E00E949B0185E00E94EE00019740
:1015100009F026CEB1E0CB16D10469F005301105F3
:1015200051F082E08816910430F00A30110519F06C
:101530000C30110531F4219709F012CECFE1D0E043
:101540000FCEA4E0CA16D10421F0B9E0CB16D10425
:1015500031F4219709F004CECEE1D0E001CE023083
:10156000110509F0FDCD2197E114F10449F4A1140E
:10157000B10431F0209709F0F3CDCDE1D0E0F0CD0A
:10158000209709F0EDCDCCE1D0E0EACD8C2F0E9480
:10159000CF0301CE84E00E94EE000197C1F464E61F
:1015A00070E080E090E00E949B0184E00E94EE00E9
:1015B0000197A1F480913D02882309F4ECCD0E94AB
:1015C0002F0690E09093360280933502E4CD82E0BE
:1015D0000E94EE00019709F08FCDE1CF82E00E94DA
:1015E000EE00019709F088CDE5CF85E00E94EE007E
:1015F000019709F000CE64E670E080E090E00E9480
:101600009B0185E00E94EE00019709F0F4CD21973F
:1016100009F0F1CDC8E1D0E0EECD8C2F0E942C0571
:1016200005CE84E00E94EE000197C1F464E670E00C
:1016300080E090E00E949B0184E00E94EE00019710
:10164000A1F480913D02882309F4F0CD0E94EB05BE
:1016500090E09093340280933302E8CD82E00E94C0
:10166000EE00019709F0A6CDE1CF82E00E94EE00E6
:10167000019709F09FCDE5CF85E00E94EE0001972C
:1016800009F004CE64E670E080E090E00E949B01E7
:1016900085E00E94EE00019709F0F8CD219708F04F
:1016A000F5CDCBE3D0E0F2CD8C2F0E94A70309CE7D
:1016B00084E00E94EE000197C1F464E670E080E0EF
:1016C00090E00E949B0184E00E94EE000197A1F44B
:1016D00080913D02882309F4F4CD0E94C00590E07A
:1016E0009093320280933102ECCD82E00E94EE00B2
:1016F000019709F0AACDE1CF82E00E94EE000197A8
:1017000009F0A3CDE5CF85E00E94EE00019709F036
:1017100008CE64E670E080E090E00E949B0185E0E6
:101720000E94EE00019709F0FCCD219708F0F9CD59
:10173000CBE3D0E0F6CD88E60E948C0070E060E05C
:101740008091AB029091AC020E94A003A091AB02E9
:10175000B091AC028C2F6AE00E948C108295807F41
:10176000682F690FED91FC9111970190F081E02DA8
:10177000CD0109958091AB029091AC020E94B90213
:1017800088E60E948C006FE070E08091AB0290913F
:10179000AC020E94A0038091AB029091AC020E9427
:1017A000B9028091AB029091AC020E9464048091D6
:1017B000AB029091AC02DC01ED91FC910284F385C7
:1017C000E02D0995C82F88E60E948C006FE070E03C
:1017D0008091AB029091AC020E94A0038091AB0279
:1017E0009091AC026C2F6F77DC01ED91FC91019030
:1017F000F081E02D09958091AB029091AC02DF91D0
:10180000CF911F910F91FF90EF90DF90CF90BF90FD
:10181000AF909F908F907F906F905F904F903F9090
:101820002F900C94B90284E00E94EE000197C1F45D
:1018300064E670E080E090E00E949B0184E00E94FA
:10184000EE000197A1F480913D02882309F484CD34
:101850000E94950590E09093300280932F027CCDFA
:1018600082E00E94EE00019709F03ACDE1CF82E0DC
:101870000E94EE00019709F033CDE5CF85ED80930E
:10188000BC008091690290916A02A0916B02B091B4
:101890006C020796A11DB11D23E0B695A7959795FB
:1018A00087952A95D1F72091BC0024FD03C01092A2
:1018B000670208954091690250916A0260916B023B
:1018C00070916C02452B462B472B69F30097A105BD
:1018D000B10541F02AE22A95F1F700C00197A1096C
:1018E000B109E1CF809168020C9412021F920F920D
:1018F0000FB60F9211242F933F938F939F93AF9323
:10190000BF938091270290912802A0912902B09163
:101910002A0230911E0223E0230F2D3758F501963D
:10192000A11DB11D20931E028093270290932802CF
:10193000A0932902B0932A0280911F029091200265
:10194000A0912102B09122020196A11DB11D8093A8
:101950001F0290932002A0932102B0932202BF9114
:10196000AF919F918F913F912F910F900FBE0F904C
:101970001F90189526E8230F0296A11DB11DD2CF06
:101980001F920F920FB60F9211242F933F934F93F4
:101990005F936F937F938F939F93AF93BF93EF93D7
:1019A000FF938091B900887F803609F44AC0F0F532
:1019B000883209F4A7C018F5803109F49BC0B8F447
:1019C000882309F4F9C0883009F494C0FF91EF919D
:1019D000BF91AF919F918F917F916F915F914F9147
:1019E0003F912F910F900FBE0F901F901895883147
:1019F00009F488C0803251F78093650214C08034A6
:101A000009F49DC040F48033B9F38833F9F680932C
:101A1000650285ECB0C0803509F485C0883509F4CD
:101A200096C0883499F60E943E0CD0CF883909F4CC
:101A30008CC038F5883729F050F4883611F080379B
:101A400029F683E08093670210921D0257C0883800
:101A500009F47BC0803919F0803809F0B7CF809144
:101A60001D02803208F071C0E0911D0281E08E0FEE
:101A700080931D028091BB00F0E0E350FE4F808315
:101A80003DC0803B39F0E0F4803A09F479C0883AEF
:101A900009F09CCF84E0809367021092FC011092C1
:101AA000FB01E0912502F091260209958091FB014E
:101AB00081110FC081E08093FB011092DB0109C00E
:101AC000803C09F4A6CF883C09F4A3CF883B09F0F9
:101AD0007DCFE091FC0181E08E0F8093FC01F0E06E
:101AE000E552FE4F80818093BB009091FC01809174
:101AF000FB0129C0809162028093BB0085EC80933A
:101B0000BC0064CF9091640280916302981758F5ED
:101B1000E091640281E08E0F80936402F0E0EF5B5D
:101B2000FD4F8081E9CFE091640281E08E0F8093C8
:101B300064028091BB00F0E0EF5BFD4F80839091E9
:101B40006402809163029817C8F285E8D8CFE091CB
:101B5000640281E08E0F809364028091BB00F0E00C
:101B6000EF5BFD4F80838091660281115CCF81E045
:101B70008093610284EA8093BC001092670226CFB2
:101B800085EC8093BC001092670280911D02803228
:101B900030F4E0911D02F0E0E350FE4F10826091BE
:101BA0001D0270E0E0912302F09124028DEF91E09C
:101BB000099510921D020ACF1092650234CFE3E915
:101BC000F2E01382128288EE93E0A0E0B0E084831A
:101BD0009583A683B7838CE091E091838083F09313
:101BE000AC02E093AB02EFE9F2E0138212828EE1E5
:101BF00091E09183808387E2848384E1818784E01C
:101C0000828713860895789484B5826084BD84B5F4
:101C1000816084BD85B5826085BD85B5816085BDE7
:101C200080916E00816080936E001092810080919F
:101C30008100826080938100809181008160809327
:101C40008100809180008160809380008091B1004C
:101C500084608093B1008091B00081608093B00077
:101C600080917A00846080937A0080917A0082600B
:101C700080937A0080917A00816080937A008091CD
:101C80007A00806880937A001092C10010926E02F0
:101C900010926D021092900210928F020E94F40135
:101CA00086E990E0909326028093250287E990E0F0
:101CB00090932402809323021092A4028091A9029F
:101CC000823018F098E09093A4028093A70262E318
:101CD00070E080E090E00E949B016091AA028FE991
:101CE00092E00E94470468EE73E080E090E00E947A
:101CF0009B0160E38FE992E00E94B606CBE4D6E454
:101D0000CE010197F1F760E38FE992E00E94B606F9
:101D10002197F1F760E38FE992E00E94B60683E530
:101D200092E00197F1F760E28FE992E00E94B60637
:101D30006091A402606240E08FE992E00E94CF06C9
:101D400084E08093A50240E06CE08FE992E00E947D
:101D5000CF060E94E60682E08093A60240E066E09D
:101D60008FE992E00E94CF0640E062E08FE992E0C6
:101D70000E94CF068BE39FE10197F1F70E94E606F0
:101D800088E08093AA0260E08FE992E00E94470415
:101D90000E94E60660E083E00E94450160E085E085
:101DA0000E94450160E084E00E94450160E082E01D
:101DB0000E94450160E086E00E94450161E087E005
:101DC0000E94450188E10E941F0485E00E94F703FC
:101DD00082E10E94CF0386E00E942C0588E30E94E6
:101DE000A703C0E0D0E002E010E0AA24A394B12C45
:101DF00080E00E94F1060E948B060E94760784E82C
:101E000091E00E94A6070E945A060E94760784E885
:101E100091E00E94A6070E942F060E94760787E99C
:101E200091E00E94A6070E94EB050E94760786E8D3
:101E300091E00E94A6070E94C0050E94760786E8EE
:101E400091E00E94A6070E9495050E94760789E806
:101E500091E00E94A60781E00E94F10688E891E0E7
:101E60000E94A60764E670E080E090E00E949B017B
:101E700086E00E94EE000197D9F469E170E080E00D
:101E800090E00E949B0186E00E94EE00019781F4A1
:101E90000E94E60689E991E00E94A60768EE73E0D9
:101EA00080E090E00E949B0110923D020E94B307E7
:101EB00084E00E94EE00019731F580913D0281118E
:101EC0002CC069E170E080E090E00E949B0184E01A
:101ED0000E94EE00019709F09AC00E94E6068CEA83
:101EE00091E00E94A60768EE73E080E090E00E9417
:101EF0009B0181E080933D020E94B307B0923C02B7
:101F0000A0923B0205C082E00E94EE000197A9F278
:101F100080913D02882309F480C08FB7F894C09067
:101F20002702D0902802E0902902F0902A028FBF69
:101F30000E948B062091390230913A0282171306D3
:101F400009F043C00E945A062091370230913802AE
:101F500082171306D1F50E942F0620913502309189
:101F600036028217130689F50E94EB052091330291
:101F7000309134028217130641F50E94C00520916A
:101F800031023091320282171306F9F40E9495054E
:101F900020912F023091300282171306B1F4809104
:101FA0003B0290913C02019781F461E087E00E943E
:101FB000170110933C0200933B02C0922B02D09277
:101FC0002C02E0922D02F0922E0284E00E94EE009C
:101FD000019749F580913B0290913C02029741F5AF
:101FE00069E170E080E090E00E949B0184E00E9443
:101FF000EE00019709F040C060E087E00E94170101
:1020000010923C0210923B0210923D0206C082E008
:102010000E94EE00019709F460CF209709F4E8CE02
:102020000E940000E5CE82E00E94EE00019791F24E
:1020300080912B0290912C02A0912D02B0912E0242
:10204000A7019601281B390B4A0B5B0BDA01C9016A
:1020500080369A4EAF4FBF4F00F380913B02909174
:102060003C020297D1F6C0922B02D0922C02E09251
:102070002D02F0922E02C0CF82E00E94EE00019766
:1020800061F6BACFAA1BBB1B51E107C0AA1FBB1F39
:10209000A617B70710F0A61BB70B881F991F5A95F4
:1020A000A9F780959095BC01CD01089597FB072E67
:1020B00016F4009407D077FD09D00E94421007FC67
:1020C00005D03EF4909581959F4F08957095619548
:1020D0007F4F0895A1E21A2EAA1BBB1BFD010DC064
:1020E000AA1FBB1FEE1FFF1FA217B307E407F507C8
:1020F00020F0A21BB30BE40BF50B661F771F881FA4
:10210000991F1A9469F760957095809590959B0139
:10211000AC01BD01CF010895991B79E004C0991F5E
:10212000961708F0961B881F7A95C9F78095089531
:10213000EE0FFF1F0590F491E02D0994F894FFCF66
:102140000000400014005400000000008A025D02FC
:1021500061043302560243023402000000002207E9
:1021600098006104600443757272656E742079652D
:1021700061723A200043757272656E74206D6F6EE5
:1021800074683A200043757272656E7420646179D8
:102190003A200043757272656E7420486F75723A0A
:1021A000200043757272656E74204D696E7574659A
:1021B0003A200043757272656E74207365636F6EAA
:1021C000643A20002D003A002020202020202020EA
:1021D00020202020202020200054692061646A757E
:1021E000737420636F6E662E2E2E2E00536574203E
:0A21F000416C61726D2E2E2E2E0040
:107E0000112484B714BE81FFF0D085E080938100F7
:107E100082E08093C00088E18093C10086E0809377
:107E2000C20080E18093C4008EE0C9D0259A86E02C
:107E300020E33CEF91E0309385002093840096BBD3
:107E4000B09BFECF1D9AA8958150A9F7CC24DD24C4
:107E500088248394B5E0AB2EA1E19A2EF3E0BF2EE7
:107E6000A2D0813461F49FD0082FAFD0023811F036
:107E7000013811F484E001C083E08DD089C08234E0
:107E800011F484E103C0853419F485E0A6D080C0E4
:107E9000853579F488D0E82EFF2485D0082F10E0AE
:107EA000102F00270E291F29000F111F8ED06801E7
:107EB0006FC0863521F484E090D080E0DECF843638
:107EC00009F040C070D06FD0082F6DD080E0C81688
:107ED00080E7D80618F4F601B7BEE895C0E0D1E017
:107EE00062D089930C17E1F7F0E0CF16F0E7DF06D8
:107EF00018F0F601B7BEE89568D007B600FCFDCFD4
:107F0000A601A0E0B1E02C9130E011968C91119780
:107F100090E0982F8827822B932B1296FA010C0160
:107F200087BEE89511244E5F5F4FF1E0A038BF0790
:107F300051F7F601A7BEE89507B600FCFDCF97BE46
:107F4000E89526C08437B1F42ED02DD0F82E2BD052
:107F50003CD0F601EF2C8F010F5F1F4F84911BD097
:107F6000EA94F801C1F70894C11CD11CFA94CF0C13
:107F7000D11C0EC0853739F428D08EE10CD085E9AC
:107F80000AD08FE07ACF813511F488E018D01DD067
:107F900080E101D065CF982F8091C00085FFFCCF94
:107FA0009093C60008958091C00087FFFCCF809118
:107FB000C00084FD01C0A8958091C6000895E0E648
:107FC000F0E098E1908380830895EDDF803219F02E
:107FD00088E0F5DFFFCF84E1DECF1F93182FE3DFCA
:107FE0001150E9F7F2DF1F91089580E0E8DFEE27F6
:047FF000FF270994CA
:027FFE00040479
:00000001FF
